S01700004763634170706C69636174696F6E312E737265635B
S11300000C9437000C9454000C9454000C94540039
S11300100C9454000C9454000C9454000C9454000C
S11300200C9454000C9454000C9454000C945400FC
S11300300C9454000C9454000C9454000C945400EC
S11300400C9454000C9454000C9454000C945400DC
S11300500C9454004E02590273028D02A702C1028D
S11300602803280328032803DB02F5020F031124C5
S11300701FBECFE5D8E0DEBFCDBF12E0A0E6B0E002
S1130080E0ECF0E102C005900D92A23CB107D9F773
S113009023E0A2ECB2E001C01D92AC34B207E1F758
S11300A00E9424080C945E080C94000085BB8FE920
S11300B09FE00197F1F700C0000082B38B7F82BB01
S11300C082B38D7F82BB82B3816082BB8FE99FE064
S11300D00197F1F700C0000082B38E7F82BB0895C0
S11300E085BB8FE99FE00197F1F700C0000082B360
S11300F0846082BB82B38D7F82BB82B3816082BB0A
S11301008FE99FE00197F1F700C0000082B38E7F72
S113011082BB0895029739F482B3806182BB82B3B3
S1130120877F82BB089582B38F7E82BB82B388604F
S113013082BB0895CF93DF9300D01F92CDB7DEB773
S113014088EB898380E48A838FE38B8382E090E069
S11301500E948A00109209030EC0E1E0F0E0EC0F67
S1130160FD1FE80FF11D80810E9456008091090354
S11301708F5F8093090380910903833070F381E0DA
S113018090E00E948A00109209030EC0E1E0F0E0C2
S1130190EC0FFD1FE80FF11D80810E945600809135
S11301A009038F5F8093090380910903833070F3FF
S11301B00F900F900F90DF91CF910895CF93DF931D
S11301C08FE99FE00197F1F700C0000082B38F7DB3
S11301D082BB8FE19EE40197F1F700C0000082B377
S11301E0806282BB8FE99FE00197F1F700C00000B5
S11301F00E949A008FEC97E00197F1F700C000008D
S113020082E090E00E948A0088EB0E94560080E41D
S11302100E9456001092090308C080E00E947000FA
S1130220809109038F5F80930903809109038034CF
S1130230A0F389EB0E94560080E40E9456001092BD
S1130240090308C080E00E947000809109038F5F59
S113025080930903809109038231A0F3109209036A
S11302600BC0F0E0E959FD4F80810E94700080913D
S113027009038F5F80930903E0910903EB3188F34D
S11302801092090308C080E00E9470008091090365
S11302908F5F80930903809109038331A0F38AEB74
S11302A00E94560080E40E9456001092090308C080
S11302B080E00E947000809109038F5F809309039E
S11302C0809109038830A0F3109209030BC0F0E079
S11302D0E95CFD4F80810E947000809109038F5F6B
S11302E080930903E0910903E03388F31092090332
S11302F008C080E00E947000809109038F5F8093A2
S11303000903809109038830A0F3C3E0D0E017C04B
S11303108C2F886B0E94560080E40E945600109235
S1130320090308C080E00E947000809109038F5F78
S113033080930903809109038034A0F32196C5308A
S1130340D10534F38DEB0E94560080E40E945600E0
S11303501092090308C080E00E9470008091090394
S11303608F5F80930903809109038830A0F3109272
S113037009030BC0F0E0E95FFD4F80810E9470002B
S1130380809109038F5F80930903E0910903E033AF
S113039088F31092090308C080E00E9470008091E5
S11303A009038F5F80930903809109038830A0F3C8
S11303B0C6E0D0E017C08C2F886B0E94560080E402
S11303C00E9456001092090308C080E00E94700049
S11303D0809109038F5F809309038091090380341E
S11303E0A0F32196C830D10534F3DF91CF9108955D
S11303F0EF92FF920F931F93CF93DF93CDB7DEB7A6
S113040028970FB6F894DEBF0FBECDBFE82E142F89
S1130410F22E062F000F000F000F81E090E00E94E3
S11304208A008E2D886B0E945600802F80640E9463
S11304305600F11012C0109209030AC0E1E0F0E086
S1130440EC0FFD1FE80FF11D10828F5F80930903ED
S113045080910903883090F316C08FEF89838887D1
S113046081E0809309030BC0E1E0F0E0EC0FFD1F95
S1130470E80FF11D91E890838F5F809309038091C9
S11304800903873088F3412F50E04D30510508F0BF
S1130490DFC0FA01E65DFF4F0C9444081092090393
S11304A003C08F5F80930903809109038830C8F3E8
S11304B0CFC01092090312C0E82FF0E0DF01A65567
S11304C0BD4F9C9121E030E02C0F3D1FE20FF31F44
S11304D02081922B90838F5F80930903809109037D
S11304E0883050F3B5C01092090312C0E82FF0E031
S11304F0DF01AE55BD4F9C9121E030E02C0F3D1F34
S1130500E20FF31F2081922B90838F5F8093090366
S113051080910903883050F39BC01092090312C0E4
S1130520E82FF0E0DF01A656BD4F9C9121E030E0BA
S11305302C0F3D1FE20FF31F2081922B90838F5FBE
S11305408093090380910903883050F381C010928D
S1130550090312C0E82FF0E0DF01AE56BD4F9C91B5
S113056021E030E02C0F3D1FE20FF31F2081922B7E
S113057090838F5F8093090380910903883050F33F
S113058067C01092090312C0E82FF0E0DF01A657FC
S1130590BD4F9C9121E030E02C0F3D1FE20FF31F73
S11305A02081922B90838F5F8093090380910903AC
S11305B0883050F34DC01092090312C0E82FF0E0C8
S11305C0DF01A654BD4F9C9121E030E02C0F3D1F6C
S11305D0E20FF31F2081922B90838F5F8093090396
S11305E080910903883050F333C01092090312C07C
S11305F0E82FF0E0DF01AE54BD4F9C9121E030E0E4
S11306002C0F3D1FE20FF31F2081922B90838F5FED
S11306108093090380910903883050F319C0109224
S1130620090312C0E82FF0E0DF01AE57BD4F9C91E3
S113063021E030E02C0F3D1FE20FF31F2081922BAD
S113064090838F5F8093090380910903883050F36E
S1130650109209030EC0E1E0F0E0EC0FFD1FE80F7B
S1130660F11D80810E947000809109038F5F809347
S1130670090380910903883070F328960FB6F89423
S1130680DEBF0FBECDBFDF91CF911F910F91FF90C1
S1130690EF900895CF93DF938DEB0E94560080E492
S11306A00E9456001092090308C080E00E94700066
S11306B0809109038F5F809309038091090380343B
S11306C0A0F31092C80210920A038CE080930B03EB
S11306D082E090E00E948A00D0E00CC020E04CE070
S11306E06C2F8D2F0E94F801CF5F01C0C0E0C8308D
S11306F0A8F3DF5FD830D0F3DF91CF91089582E083
S113070090E00E948A008DEB0E94560080E40E94D3
S113071056001092090308C080E00E947000809186
S113072009038F5F80930903809109038430A0F348
S1130730109209030BC0F0E0E053FE4F80810E9449
S11307407000809109038F5F80930903E09109038E
S1130750E73388F31092090308C080E00E94700018
S1130760809109038F5F8093090380910903853089
S1130770A0F3089582E090E00E948A008DEB0E942D
S1130780560080E40E9456001092090308C080E0DD
S11307900E947000809109038F5F80930903809108
S11307A009038830A0F3109209030BC0F0E0E0566F
S11307B0FE4F80810E947000809109038F5F8093B7
S11307C00903E0910903E03388F31092090308C098
S11307D080E00E947000809109038F5F8093090379
S11307E0809109038830A0F308951F93CF93DF937A
S11307F0182FD62FC42F211103C00E94F80115C051
S113080020E040910B0360910A038091C8020E948A
S1130810F80121E04C2F6D2F812F0E94F8011093D5
S1130820C802D0930A03C0930B03DF91CF911F91A9
S113083008951092C7021092C6021092C402109238
S1130840090316C0E22FF0E0EE0FFF1FEE0FFF1FAB
S1130850EE0FFF1FE45FFC4FE80FF11D9CE0908357
S11308608F5F01C080E0883068F32F5F2093090315
S1130870209109032830B0F38091C2029091C30201
S1130880019665E070E00E943008482F592F80934C
S1130890C2029093C302109209032CC08A2F90E0E5
S11308A0262F30E0FA01EE0FFF1FEE0FFF1FEE0FB1
S11308B0FF1FE80FF91FEE0FFF1FEE0FFF1FEE0FD4
S11308C0FF1FE05AFF4FE20FF31F7081880F991F3B
S11308D0880F991F880F991F87539D4FFC01E20FC2
S11308E0F31F70836F5F01C060E06830B8F2AF5FE0
S11308F0A0930903A0910903A830B0F30E944A030E
S11309008091C7026091C602E82FF0E0EE0FFF1F4E
S1130910EE0FFF1FEE0FFF1FE45FFC4FE60FF11D0C
S113092021E040810E94F5030895B39B25C0809186
S1130930C602811104C087E08093C60203C08150BF
S11309408093C6028091C7026091C602E82FF0E04E
S1130950EE0FFF1FEE0FFF1FEE0FFF1FE45FFC4FB4
S1130960E60FF11D21E040810E94F5038FE39CE92D
S11309700197F1F700C00000B19B29C06091C60245
S113098070E06F5F7F4F67707078772334F4615045
S11309907109686F7F6F6F5F7F4F6093C6028091AC
S11309A0C702E82FF0E0EE0FFF1FEE0FFF1FEE0F60
S11309B0FF1FE45FFC4FE60FF11D21E040810E9420
S11309C0F5038FE39CE90197F1F700C00000B29BA7
S11309D026C08091C70290E0019687709078992391
S11309E024F40197886F9F6F01968093C7026091EA
S11309F0C602E82FF0E0EE0FFF1FEE0FFF1FEE0F11
S1130A00FF1FE45FFC4FE60FF11D21E040810E94CF
S1130A10F5038FE39CE90197F1F700C00000B09B58
S1130A2025C08091C702811104C087E08093C7026A
S1130A3003C081508093C7028091C7026091C602AF
S1130A40E82FF0E0EE0FFF1FEE0FFF1FEE0FFF1F6A
S1130A50E45FFC4FE60FF11D21E040810E94F503A5
S1130A608FE39CE90197F1F700C00000B49B8FC2AB
S1130A708091C702282F30E06091C602A62FB0E013
S1130A80F901EE0FFF1FEE0FFF1FEE0FFF1FE45FD4
S1130A90FC4FEA0FFB1F90819C3009F072C2220FB9
S1130AA0331F220F331F220F331FF901E753FD4F6A
S1130AB0EA0FFB1F4081245F3C4FF901EA0FFB1F43
S1130AC0408321E00E94F5038091C4028F5F8093EC
S1130AD0C4028091C702282F30E06091C602A62F7D
S1130AE0B0E0F901EE0FFF1FEE0FFF1FEE0FFF1F27
S1130AF0E45FFC4FEA0FFB1F90819111F9C1882339
S1130B0099F121503109F901EE0FFF1FEE0FFF1F7C
S1130B10EE0FFF1FE753FD4FEA0FFB1F40814A30E2
S1130B2019F1F901EE0FFF1FEE0FFF1FEE0FFF1F6C
S1130B30E45FFC4FEA0FFB1F90819C30A9F4220F65
S1130B40331F220F331F220F331FF901E45FFC4FC1
S1130B50EA0FFB1F408320E081500E94F50380913F
S1130B60C4028F5F8093C4029091C6029923E1F17D
S1130B708091C702A82FB0E0292F30E0B90161505D
S1130B807109FD01EE0FFF1FEE0FFF1FEE0FFF1F98
S1130B90E753FD4FE60FF71F40814A3029F1FD016D
S1130BA0EE0FFF1FEE0FFF1FEE0FFF1FE45FFC4F62
S1130BB0E60FF71F20812C30B9F49D01220F331F5B
S1130BC0220F331F220F331F245F3C4FF901E60F1E
S1130BD0F71F40836FEF690F20E00E94F5038091B7
S1130BE0C4028F5F8093C4028091C702873070F57E
S1130BF0282F30E02F5F3F4F6091C602A62FB0E050
S1130C00F901EE0FFF1FEE0FFF1FEE0FFF1FE7535B
S1130C10FD4FEA0FFB1F40814A30C1F0F901EE0F8E
S1130C20FF1FEE0FFF1FEE0FFF1FE45FFC4FEA0FE5
S1130C30FB1F90819C3051F4408320E08F5F0E9421
S1130C40F5038091C4028F5F8093C4029091C60221
S1130C509730D0F58091C702282F30E0692F70E0DB
S1130C606F5F7F4FF901EE0FFF1FEE0FFF1FEE0FB7
S1130C70FF1FE753FD4FE60FF71F40814A3021F174
S1130C80F901EE0FFF1FEE0FFF1FEE0FFF1FE45FD2
S1130C90FC4FE60FF71F50815C30B1F4220F331F75
S1130CA0220F331F220F331F245F3C4FF901E60F3D
S1130CB0F71F408361E0690F20E00E94F5038091F3
S1130CC0C4028F5F8093C4028091C702882309F411
S1130CD03FC09091C6029923D9F1282F30E02150CA
S1130CE03109692F70E061507109F901EE0FFF1F9E
S1130CF0EE0FFF1FEE0FFF1FE753FD4FE60FF71F29
S1130D0040814A3029F1F901EE0FFF1FEE0FFF1F5A
S1130D10EE0FFF1FE45FFC4FE60FF71F50815C30BE
S1130D20B9F4220F331F220F331F220F331F245F06
S1130D303C4FF901E60FF71F40836FEF690F20E086
S1130D4081500E94F5038091C4028F5F8093C40296
S1130D508091C702873008F03FC09091C602992362
S1130D60D9F1282F30E02F5F3F4F692F70E0615099
S1130D707109F901EE0FFF1FEE0FFF1FEE0FFF1FAA
S1130D80E753FD4FE60FF71F40814A3029F1F9017F
S1130D90EE0FFF1FEE0FFF1FEE0FFF1FE45FFC4F70
S1130DA0E60FF71F50815C30B9F4220F331F220F76
S1130DB0331F220F331F245F3C4FF901E60FF71F47
S1130DC040836FEF690F20E08F5F0E94F5038091ED
S1130DD0C4028F5F8093C4028091C702882309F400
S1130DE03FC09091C6029730D8F5282F30E02150AB
S1130DF03109692F70E06F5F7F4FF901EE0FFF1F1C
S1130E00EE0FFF1FEE0FFF1FE753FD4FE60FF71F17
S1130E1040814A3029F1F901EE0FFF1FEE0FFF1F49
S1130E20EE0FFF1FE45FFC4FE60FF71F50815C30AD
S1130E30B9F4220F331F220F331F220F331F245FF5
S1130E403C4FF901E60FF71F408361E0690F20E092
S1130E5081500E94F5038091C4028F5F8093C40285
S1130E608091C702873008F08CC09091C6029730F9
S1130E7008F087C0282F30E02F5F3F4F692F70E0C4
S1130E806F5F7F4FF901EE0FFF1FEE0FFF1FEE0F95
S1130E90FF1FE753FD4FE60FF71F40814A3009F467
S1130EA070C0F901EE0FFF1FEE0FFF1FEE0FFF1FC3
S1130EB0E45FFC4FE60FF71F50815C3009F061C01E
S1130EC0220F331F220F331F220F331F245F3C4F87
S1130ED0F901E60FF71F408361E0690F20E08F5F9F
S1130EE00E94F5038091C4028F5F8093C40249C0BD
S1130EF09A3009F046C038C08D2F90E02C2F30E096
S1130F00FC01EE0FFF1FEE0FFF1FEE0FFF1FE75355
S1130F10FD4FE20FF31F40814A30F9F4FC01EE0F5C
S1130F20FF1FEE0FFF1FEE0FFF1FE45FFC4FE20FEA
S1130F30F31F50815C3089F4880F991F880F991F23
S1130F40880F991F845F9C4FFC01E20FF31F4083BD
S1130F5020E06C2F8D2F0E94F503CF5F01C0C0E00D
S1130F60C83050F2DF5F01C0D0E0D830C0F30E9437
S1130F707F038FE59AEE0197F1F700C000000E940D
S1130F8019048FE39CE90197F1F700C00000B59BB9
S1130F904BC08091C702282F30E06091C602462FD3
S1130FA050E0F901EE0FFF1FEE0FFF1FEE0FFF1FC2
S1130FB0E45FFC4FE40FF51F90819C30B9F4220FDD
S1130FC0331F220F331F220F331F245F3C4FF901BD
S1130FD0E40FF51F9BE0908321E04BE00E94F503B2
S1130FE08091C4028F5F8093C40218C09B30B1F417
S1130FF0220F331F220F331F220F331F245F3C4F56
S1131000F901E40FF51F9CE0908321E04CE00E947D
S1131010F5038091C40281508093C4028FE39CE95C
S11310200197F1F700C000008091C402803409F0F8
S11310307CCC0E94BA038FE59AEE0197F1F700C0C9
S113104000000E94190471CC8FEF81BB84BB17BAD6
S11310500E94DE001092C5020E9419040E949504A9
S113106097FB072E16F4009407D077FD09D00E9451
S11310704A0807FC05D03EF4909581959F4F08954A
S1131080709561957F4F0895EE0FFF1F0590F491C1
S1131090E02D0994AA1BBB1B51E107C0AA1FBB1F6B
S11310A0A617B70710F0A61BB70B881F991F5A95F0
S11310B0A9F780959095BC01CD010895F894FFCFD0
S11310C000000102030201000101010A0A0A0200F0
S11310D00A010102040A02000101000001010100E9
S11310E000000000000000000101010101010101F4
S11310F00A01010A01020A030101010101020A0AAB
S113110001010000000000000A01000000000000CE
S113111002030101010101000A040A02010A01009B
S11311200A040A0201010100010302020000010194
S113113002030A010000010A0A0A02010000010177
S1131140010101010101010A010A01010A01010170
S113115001010101010201010000000000010A0176
S11311600101010000010202010A03020201020A54
S113117002030A0A020A02010A020202020101002F
S11311800A020A010000020A010302020101030A21
S113119000010A01010A0201010202010101010028
S11311A0020A0100000001010A0202010100010A11
S11311B00101010A01000101000001010100000018
S11311C00A010000010A01000102020202010100F9
S11311D000010A0A010000000001020201000000EF
S11311E00000000101010000000000010A020202E7
S11311F00101000202030A0A0A0100010A02030AA9
S1131200001F2040201F0000007D4000003844449F
S1131210442800043E442400003844444438004434
S113122078440408009CA0603C000000005F0000BB
S1131230003E4149497A002054545478007C0418F3
S1131240047800385454540800003E4141413E00A3
S11312501C2040201C003854545408004478440492
S1131260080000005F0000003F403C403F007F4911
S113127049494100007F404000003E414141220075
S11312803E4141413E007F0204027F007F494949BB
S11312904100140041221C00264949493200003F04
S11312A0403C403F00007F4949494100007F494993
S11312B0494100007F0909090600007F4949494165
S11312C000007F09091966007F0204027F00000004
S11312D0417F410000007F0204087F00007F4949EC
S11312E04941007E7E7E7E7E7E0000001E524A4A78
S11312F03000001018147E10100000004452522CCC
S1131300000000004462524C0000000048447E404B
S11313100000007E362200367E00005A2442422419
S10513205A006D
S9030000FC
